:100000000C943E000C94A9030C9437020C945B00F2
:100010000C945B000C94F8030C945B000C945B0054
:100020000C945B000C945B000C945B000C945B00E4
:100030000C945B000C945B000C945B000C941E020F
:100040000C945B000C945B000C945B000C945B00C4
:100050000C945B000C945B000C945B000C945B00B4
:100060000C945B000C945B000C945B000C945B00A4
:100070000C945B000C945B000C945B0011241FBE7D
:10008000CFEFD0E1DEBFCDBF11E0A0E0B1E0E8E00E
:10009000FDE002C005900D92A033B107D9F721E031
:1000A000A0E3B1E001C01D92AA33B207E1F70E94BC
:1000B000A0030C9482060C940000000082B18068BA
:1000C00082B9000082B18F7782B900000895CF9382
:1000D000C82F82B18F7D82B988B19C2F907F8F709D
:1000E000892B88B90E945D0020E1C29FC0011124C4
:1000F00098B19F70892B88B90E945D0089EF90E0CC
:100100000197F1F700C00000CF910895CF93C82F59
:10011000843E09F4C1EEC63F09F4CFEE82B180629D
:1001200082B988B19C2F907F8F70892B88B90E94EB
:100130005D0020E1C29FC001112498B19F70892BFE
:1001400088B90E945D0089EF90E00197F1F700C047
:100150000000CF91089592B19F7D92B998B1807FB0
:100160009F70892B88B90E945D0089EF90E001970C
:10017000F1F700C0000008951F93CF93DF93EC01C7
:100180009C01329522952F7023273F702327A7E4E7
:10019000B3E00E946806AC01569547955695479581
:1001A000569547959A01ADECBCEC0E946806969571
:1001B000879596958795969587959C01220F331F75
:1001C000880F991F880F991F880F991F820F931FFF
:1001D0009A01281B390BC901009729F0805D0E9404
:1001E000860010E304C080E20E94860010E29E01B7
:1001F000369527953695279536952795A5ECB0E247
:100200000E946806AC01529542954F7045275F7079
:1002100045279A01ADECBCEC0E946806969587953F
:1002200096958795969587959C01220F331F880F89
:10023000991F880F991F880F991F820F931F9A018A
:10024000281B390BC901009729F0805D0E948600A8
:1002500010E303C0812F0E9486009E0136952795EA
:1002600036952795ABE7B4E10E946806AC01569538
:1002700047959A01ADECBCEC0E946806969587956F
:1002800096958795969587959C01220F331F880F29
:10029000991F880F991F880F991F820F931F9A012A
:1002A000281B390BC901009729F0805D0E94860048
:1002B00010E303C0812F0E9486009E01ADECBCECD0
:1002C0000E946806AC0156954795569547955695F8
:1002D00047959A010E946806969587959695879509
:1002E000969587959C01220F331F880F991F880FC1
:1002F000991F880F991F820F931F9A01281B390B92
:10030000C901009721F0805D0E94860003C0812F03
:100310000E9486009E01ADECBCEC0E94680696959A
:10032000879596958795969587959C01220F331F03
:10033000880F991F880F991F880F991F820F931F8D
:100340009E01281B390BC901805D0E948600DF9148
:10035000CF911F91089582B18F7D82B982B180645F
:1003600082B987B18F7087B987B1806F87B982B141
:100370008F7B82B90895CF93DF93EC0105C021965E
:100380000E9486000E94AB0188818111F8CFDF9125
:10039000CF91089582B18F7D82B982B18F7B82B96E
:1003A00082B18F7782B981B1806281B981B1806475
:1003B00081B981B1806881B987B1806F87B987EAD7
:1003C00091E60197F1F700C0000080E20E94AB00C7
:1003D00087E893E10197F1F700C0000088E20E94EE
:1003E000670083EC99E00197F1F700C0000088E214
:1003F0000E9467000E94AB018FE00E9467000E948C
:10040000AB0181E00E9467000E94AB0186E00E9480
:1004100067000E94AB0183ED90E30197F1F700C004
:100420000000089592B19F7D92B992B19F7B92B9DD
:1004300080580E9467000E94AB0108951F920F929E
:100440000FB60F9211248F939F9382B1805882B977
:100450008091100190911101909385008093840008
:100460009F918F910F900FBE0F901F9018951F9224
:100470000F920FB60F9211242F933F934F935F93D8
:100480006F937F938F939F93AF93BF93EF93FF935C
:10049000F8948091020190910301019690930301D9
:1004A00080930201419731F48CE090E09093030136
:1004B0008093020185E590E00E9412028091020182
:1004C000909103018C30910539F480E197E290938B
:1004D00001018093000123C08D30910539F488EE2D
:1004E00093E0909301018093000119C08E30910533
:1004F00039F484E690E090930101809300010FC0ED
:100500000F9739F48AE090E0909301018093000105
:1005100006C081E090E090930101809300017894FF
:10052000FF91EF91BF91AF919F918F917F916F91CB
:100530005F914F913F912F910F900FBE0F901F90A1
:10054000189580E881B914B808958AE0809369000D
:1005500083E08DBB809104018F5F80938100809147
:10056000100190911101909385008093840081E0A7
:1005700080936F0082E08093680087E080936C0036
:10058000789408958F929F92AF92BF92CF92DF920C
:10059000EF92FF92F894E0910401F0910501EE0FC3
:1005A000FF1FEA5FFE4F60817181072E000C880BF0
:1005B000990B0E946F059B01AC0160E876E988E128
:1005C0009BE40E94C5046B017C01209110013091D5
:1005D000110180E090E0A1E0B0E0BC01CD01621B20
:1005E000730B810991090E946F059B01AC01C70142
:1005F000B6010E94C5046B017C01609330017093C9
:10060000310180933201909333010E9437054B01F1
:100610005C016093360170933701809338019093A9
:10062000390120E030E048EC52E4C701B6010E94F5
:10063000FB056B017C01A4E6B0E0A50194010E94DA
:1006400077060E946F059B01AC01C701B6010E94AD
:1006500058040E943705709335016093340181E19D
:1006600090E00E94120282E191E00E94BB018CE0C6
:1006700090E00E94120280913401909135010E9415
:10068000BC008EE090E00E9412028CE20E94860084
:1006900089E090E00E94120280913601909137012A
:1006A0000E94BC0080913401909135010A973CF47E
:1006B0008FE090E00E94120280E30E94860080E0BA
:1006C00090E00E94120286E191E00E94BB018CE45E
:1006D00090E00E941202E0910401F0910501EE0FFA
:1006E000FF1FEA5FFE4F808191810E94BC0080E481
:1006F00090E00E9412028DE191E00E94BB0180E235
:1007000090E00E94120280911001909111010E94CC
:10071000BC0084E190E00E94120288E291E00E9415
:10072000BB0185E590E00E9412020E94A502FF90A5
:10073000EF90DF90CF90BF90AF909F908F900895F3
:100740000E94A1020E94CA010E94A5020E94C20248
:10075000FFCF1F920F920FB60F9211242F933F934A
:100760004F935F936F937F938F939F93AF93BF93B9
:10077000EF93FF93F8941B9B0FC0209110013091D1
:1007800011018091000190910101820F931F9093BC
:1007900011018093100110C01B990EC080911001AF
:1007A000909111012091000130910101821B930B66
:1007B00090931101809310012FE78AE196E0215078
:1007C00080409040E1F700C000000E94C202FF910B
:1007D000EF91BF91AF919F918F917F916F915F91B9
:1007E0004F913F912F910F900FBE0F901F90189532
:1007F0001F920F920FB60F9211242F933F934F9396
:100800005F936F937F938F939F93AF93BF93EF9378
:10081000FF931A990AC080910401909105010196F5
:10082000909305018093040114C0199907C082E0D8
:1008300090E090930501809304010BC0189909C0C2
:100840008091040190910501019790930501809397
:100850000401809104019091050199232CF41092D8
:1008600005011092040108C0059734F084E090E07F
:1008700090930501809304012FE78AE196E02150CF
:1008800080409040E1F700C000000E94C202FF914A
:10089000EF91BF91AF919F918F917F916F915F91F8
:1008A0004F913F912F910F900FBE0F901F90189571
:1008B0005058BB27AA270E9470040C94C1050E94BF
:1008C000B30538F00E94BA0520F039F49F3F19F4BF
:1008D00026F40C94B0050EF4E095E7FB0C94AA0501
:1008E000E92F0E94D20558F3BA17620773078407ED
:1008F000950720F079F4A6F50C94F4050EF4E09534
:100900000B2EBA2FA02D0B01B90190010C01CA01C9
:10091000A0011124FF27591B99F0593F50F4503E74
:1009200068F11A16F040A22F232F342F4427585F66
:10093000F3CF469537952795A795F0405395C9F77E
:100940007EF41F16BA0B620B730B840BBAF0915036
:10095000A1F0FF0FBB1F661F771F881FC2F70EC0D5
:10096000BA0F621F731F841F48F4879577956795A8
:10097000B795F7959E3F08F0B0CF9395880F08F094
:100980009927EE0F9795879508950E94D9040C94A6
:10099000C1050E94BA0558F00E94B30540F029F441
:1009A0005F3F29F00C94AA0551110C94F5050C94A5
:1009B000B0050E94D20568F39923B1F3552391F352
:1009C000951B550BBB27AA2762177307840738F0BE
:1009D0009F5F5F4F220F331F441FAA1FA9F335D01B
:1009E0000E2E3AF0E0E832D091505040E695001CCF
:1009F000CAF72BD0FE2F29D0660F771F881FBB1F89
:100A0000261737074807AB07B0E809F0BB0B802D66
:100A1000BF01FF2793585F4F3AF09E3F510578F092
:100A20000C94AA050C94F5055F3FE4F3983ED4F3CB
:100A3000869577956795B795F7959F5FC9F7880F66
:100A4000911D9695879597F90895E1E0660F771FB8
:100A5000881FBB1F621773078407BA0720F0621B49
:100A6000730B840BBA0BEE1F88F7E09508950E9474
:100A70003E056894B1110C94F50508950E94DA05BD
:100A800088F09F5798F0B92F9927B751B0F0E1F04F
:100A9000660F771F881F991F1AF0BA95C9F714C0FF
:100AA000B13091F00E94F405B1E008950C94F40582
:100AB000672F782F8827B85F39F0B93FCCF3869538
:100AC00077956795B395D9F73EF490958095709595
:100AD00061957F4F8F4F9F4F0895E89409C097FB12
:100AE0003EF490958095709561957F4F8F4F9F4F05
:100AF0009923A9F0F92F96E9BB279395F695879549
:100B000077956795B795F111F8CFFAF4BB0F11F40B
:100B100060FF1BC06F5F7F4F8F4F9F4F16C08823B2
:100B200011F096E911C0772321F09EE8872F762FE8
:100B300005C0662371F096E8862F70E060E02AF029
:100B40009A95660F771F881FDAF7880F9695879515
:100B500097F9089597F99F6780E870E060E008953D
:100B60009FEF80EC089500240A94161617061806C5
:100B70000906089500240A941216130614060506A1
:100B80000895092E0394000C11F4882352F0BB0F32
:100B900040F4BF2B11F460FF04C06F5F7F4F8F4F95
:100BA0009F4F089557FD9058440F551F59F05F3FD0
:100BB00071F04795880F97FB991F61F09F3F79F07F
:100BC00087950895121613061406551FF2CF469501
:100BD000F1DF08C0161617061806991FF1CF869583
:100BE0007105610508940895E894BB276627772767
:100BF000CB0197F908950E940E060C94C1050E943E
:100C0000B30538F00E94BA0520F0952311F00C943A
:100C1000AA050C94B00511240C94F5050E94D20588
:100C200070F3959FC1F3950F50E0551F629FF0013F
:100C3000729FBB27F00DB11D639FAA27F00DB11D58
:100C4000AA1F649F6627B00DA11D661F829F2227E1
:100C5000B00DA11D621F739FB00DA11D621F839F68
:100C6000A00D611D221F749F3327A00D611D231F3E
:100C7000849F600D211D822F762F6A2F11249F578C
:100C800050409AF0F1F088234AF0EE0FFF1FBB1F8F
:100C9000661F771F881F91505040A9F79E3F51054E
:100CA00080F00C94AA050C94F5055F3FE4F3983EA0
:100CB000D4F3869577956795B795F795E7959F5FF8
:100CC000C1F7FE2B880F911D9695879597F908958A
:100CD000A29FB001B39FC001A39F700D811D11247D
:100CE000911DB29F700D811D1124911D08950E94C8
:100CF0006806A59F900DB49F900DA49F800D911D37
:080D000011240895F894FFCFBF
:100D080010270C0001000100080040000001000449
:100D180096E720487A00467265712E3A005072654F
:100D28007363616C65723A00436F756E743A0000C4
:00000001FF
